S0180000476363426F61726450726F6A656374312E737265630F
S11300005021002099150000951500009515000059
S113001000000000000000000000000000000000DC
S11300200000000000000000000000009515000022
S11300300000000000000000951500009515000068
S11300409515000095150000951500009515000004
S113005095150000951500009515000095150000F4
S113006095150000710D0000810D0000910D000038
S1130070A10D0000B10D0000C10D00009515000098
S113008095150000951500009515000095150000C4
S113009095150000951500009515000095150000B4
S11300A095150000951500009515000095150000A4
S11300B00000000010B5064C2378002B07D1054B37
S11300C0002B02D0044800E000BF0123237010BDC0
S11300D07C00002000000000AC560000084B10B566
S11300E0002B03D00749084800E000BF0748036815
S11300F0002B00D110BD064B002BFBD09847F9E72D
S11301000000000080000020AC560000AC56000047
S11301100000000070B580225201254B1A60254C66
S113012023680225AB43236023681C229343183AB7
S1130130134323602368204A1340236023681F4A23
S11301401A4080235B031343236023681C4A134033
S11301502360636807229343636022688023DB057E
S1130160134323602368174A1340236063684022C3
S113017093436360144B1A680001101A010C0004C5
S11301800023124EB04780B2A081626880239B0294
S113019013436360626880235B0213436360A37D3F
S11301A004221343A37523681D43256070BDC04614
S11301B000E100E000140042FFFFFFEFFFFFCFFF6C
S11301C0FFFFFCFFFFFFFFF0000000200D1A0000FE
S11301D010B50D4B1B7EDB0700D410BD0029FCD0ED
S11301E004000139C9B201314018074A138D21783E
S11301F05B0A5B020B431385137E9B07FCD501341A
S11302008442F3D1E9E7C0460014004270B50020EF
S1130210084B98470500084CFA218900A047074B72
S1130220186007492800A047064B18600522064BB2
S11302301A6070BD25130000F518000004000020AA
S113024040420F000800002010E000E030B5084BE9
S11302501C68084A002580214902013807D3002C74
S1130260FBD05460956013680B42FCD0F5E730BDB9
S11302700400002010E000E00C4B1B68002B06D1AA
S1130280EFF31083002B07D00022094B1A70074AA2
S1130290136801331360704772B6BFF35F8F002297
S11302A0044B1A700132024B1A70F0E798000020D8
S11302B09C0000200C000020084B1A68013A1A60C8
S11302C01B68002B09D1064B1B78002B05D001229B
S11302D0044B1A70BFF35F8F62B67047980000201A
S11302E09C0000200C000020F0B583B001AC012577
S11302F065700027A770257021003E20064EB04788
S11303008022D205054B9A612770657021000F2069
S1130310B04703B0F0BDC046210300008044004153
S113032000B583B001AB80221A700A785A704A78FB
S11303309A708A78DA701900014B984703B000BDAF
S113034035150000F0B5D6464F464646C0B58AB0CE
S113035006000F00140031600800A04B9847A04A23
S1130360116A851C0123AB400B43136209A9237B4B
S11303700B701430C5B228009A4B984728009A4B4A
S11303809847207B0021994B98473B681C209B078A
S113039005D50AB01CBC90469946A246F0BD3B6800
S11303A01738DB07F5D430688C4B9946984705001D
S11303B08F49904B9847AD008F4BEE500023337616
S11303C0737600257383B3832522B55433621433C3
S11303D03B60336898461800C8478146802308AAC2
S11303E01370557001239370D570E069276A002853
S11303F000D1AFE008AB1870022308AA5370000CB8
S1130400C0B211007D4B9847002F00D1A7E008AB84
S11304101F70022308AA53703F0CF8B21100774BE7
S11304209847A38AF380E38A3381237E8022002BBA
S113043004D1734B9B789B07DB0FDA01A168236916
S11304400B4313432422A25C002A02D08022D2054B
S11304501343A26A13432C22A25C002A03D18022F4
S11304609204914202D18022120513432D22A25CF0
S1130470002A02D08022120413432E22A25C002AF6
S113048002D08022D20313434246126813434246E9
S1130490136080235B00536048461430C0B2594B4C
S11304A098470790FA239B0022685A439146636851
S11304B09A46554DA847009001914B465800A847CD
S11304C002900391208EA847049005914F4F504A03
S11304D0504B00980199B84702000B000498059905
S11304E0B8474D4E00224D4BB04704900591484605
S11304F0A84702000B0004980599B84702000B00B6
S1130500474D00980199A847029A039BB0470022DF
S1130510444BA847029A039B434DA847434B984733
S1130520050080239B04A2689A421ED00300402049
S1130530FF2D00D92DE700240020FF251D402406AF
S113054025430004FF231B04184005434346DD6094
S113055000201EE700214046354B98474AE7012119
S11305604046334B9847070051E7FA26B6005346F6
S11305705E430098019902000B00274CA0470090AD
S113058001913000204B984700222A4BB8470200C3
S11305900B0000980199244CA0470022214B204CC9
S11305A0A047224B9847041E0CD031000798224BD9
S11305B098470238001B2B00FF2D0CD8FF28BCD90C
S11305C04020E6E67100481E079B9C4660441A4B97
S11305D098470138EFE74020DBE6C046C90C00002D
S11305E0000400403D140000B1130000050B00009E
S11305F019090000050D0000EC000020351500006D
S11306000020004159140000C9360000352B0000B9
S113061095D626E80B2E113EAD1E000000002440A6
S1130620353000000000F03FCD24000061360000AA
S1130630510B000000000840F518000003681A7E02
S1130640920707D502221A765B8B9B074120DB17A2
S1130650184070475A8B520706D55968C022920237
S11306600A435A601820F4E70020F2E730B5026824
S1130670002301240225117E21420BD1117E29423F
S113068006D101339BB201899942F4D8122002E0C9
S1130690002000E0002030BD10B5046862688023AB
S11306A0DB02134363606162024B984701232376A4
S11306B010BDC0466D06000001680722CB691A42CE
S11306C0FCD1704770B5040006683268458B838B93
S11306D0ED1AADB2838B013B9BB2838313011DD50D
S11306E0C37A002B03D0838B9BB2012B10D0A38B36
S11306F09BB2002B02D1A37A002B1CD12000124BF9
S11307009847236A5D192823F35CDBB22B7070BD14
S113071072688023DB0213437360E8E7C37A002B1B
S1130720E5D0838B9BB2002BE1D172688023DB027E
S113073013437360DBE72000034B98477268C023C0
S11307409B0213437360D9E7B906000070B5040037
S113075005686B8B5B0703D51E222523C25470BD2D
S1130760468B838BF61AB6B2838B013B9BB2838391
S1130770044B9847236A9E193378DBB22822AB5482
S1130780EDE7C046B906000070B505000C00066828
S11307904B7A002B1AD17368134A13407360636851
S11307A02B626388AB8300222423EA54053201338D
S11307B0EA54223BB375237A002B0BD123885B00C8
S11307C0627A920313437362002070BD897A074BE7
S11307D09847E0E723885B00627A92031343802200
S11307E0120213437362EFE7FFFFFBFF9906000059
S11307F0F8B505000C0006684B6803624B888383D8
S113080001222423C25404320133C25437683F0105
S1130810FF0F4B7A002B17D1002F02D06388012BD6
S113082016D07368204A13407360237A002B15D1C5
S11308300323B37523885B00627A92031343012276
S1130840134373620020F8BD897A184B9847E3E795
S113085072688023DB0213437360E6E723885B003E
S1130860627A9203134380221202134373622800B4
S11308700F4B984773680C4A134073600028E2D109
S113088028000C4B98470028DDD10323B375238837
S11308901B0A782213435B00627A920301210A4304
S11308A013437362CFE7C046FFFFFBFF99060000C6
S11308B06D0600003D060000931C9B00C3185960A0
S11308C0037E012191400B43DBB2037670470000A5
S11308D010B5838B9BB20522002B01D0100010BDF4
S11308E001338372C372024B98470200F6E7C04695
S11308F0F107000010B5838B9BB20522002B01D0B9
S1130900100010BD83720133C372024B984702007A
S1130910F6E7C0468907000070B58000754BC458DF
S113092025682B681B01DA0F637E267E1E40638BCD
S11309309BB2002B03D1A38B9BB2002B23D1638BDF
S11309409BB2002B08D0A38B9BB2002B04D1253380
S1130950E35C052B00D16DE0638B9BB2002B24D0AC
S1130960A38B9BB2002B20D06B8B9B0600D581E020
S1130970002A04D0A38B9BB2012B00D17AE0412240
S11309802523E25411E02B7EDB0707D501232B76C8
S11309906B8B9B072ED541222523E254A38B9BB25C
S11309A063832523E35C052B38D0638B9BB2002B38
S11309B007D0A38B9BB2002B03D12533E35C052B1B
S11309C064D02523E35C052B13D02523E35C002BA3
S11309D00FD003232B7500236383A3832533E35CA8
S11309E0412B03D0A37A002B00D075E0730700D508
S11309F07BE070BD6B8B5B07D0D518222523E254B6
S1130A000023A383A37A002BC8D020003A4B984735
S1130A106A68C0239B0213436B60BFE71F33E35C28
S1130A20002B03D02000354B9847BEE72000344B01
S1130A309847BAE71F33E35C002B00D08CE70333FD
S1130A402B750023638325330022E254A37A002B01
S1130A5007D101232B76F307A7D5E3682000984735
S1130A60A3E72000244B98476A68C0239B021343E2
S1130A706B60F0E72423E35C002B03D12000204BC0
S1130A80984792E720001D4B98478EE71F33E35C9D
S1130A90012B96D12B7E9B0701D502232B760323B2
S1130AA02B750023638325330022E254B30703D557
S1130AB02423E35C012B0BD0F30700D481E7242328
S1130AC0E35C002B00D07CE7E3682000984778E7DC
S1130AD023692000984774E72000074B98476A6809
S1130AE0E023DB0213436B6080E7636920009847CF
S1130AF07FE7C046EC000020B9060000C5060000F0
S1130B004D07000010B582B004000E4B1B78002B7B
S1130B1007D0002905D10B4B5B78834210D01D20F0
S1130B200CE001A90C701320074B98471320074BC6
S1130B309847044B5C7001221A70002002B010BD6B
S1130B400020FBE7A00000203D140000B1130000CA
S1130B50404B984231D00AD93F4B98424DD03F4B3D
S1130B6098425AD03E4B984237D0002070473D4BB4
S1130B7098420CD03C4B9842F7D1012917D0002958
S1130B805DD0022915D0032915D00020EEE70129F4
S1130B9007D0002951D0022905D0032905D000200F
S1130BA0E4E73248E2E73248E0E73248DEE7324839
S1130BB0DCE73248DAE73248D8E7012907D00029D0
S1130BC03FD0022905D0032905D00020CEE72D48C7
S1130BD0CCE72D48CAE72D48C8E7012907D00029EA
S1130BE031D0022905D0032905D00020BEE72848CA
S1130BF0BCE72848BAE72848B8E7012907D0002904
S1130C0023D0022905D0032905D00020AEE72348CC
S1130C10ACE72348AAE72348A8E7012907D000291D
S1130C2015D0022905D0032905D000209EE71E48CF
S1130C309CE71E489AE71E4898E71E4896E703205B
S1130C4094E71D4892E71D4890E71D488EE71D482C
S1130C508CE7C0460010004200180042001C00420D
S1130C600014004200080042000C0042030005008A
S1130C7003000600030007000300010003001E0038
S1130C8003001F000300090003000A0003000B0017
S1130C9003001100030012000300130003000D0001
S1130CA003000E0003000F000300170003001800E8
S1130CB003001900030004000300080003001000EF
S1130CC003000C000300160030B587B00B4B6A46D6
S1130CD032CB32C232CB32C2009B83420BD00123CF
S1130CE09A0069465258824206D00133062BF7D146
S1130CF0002007B030BD0023D8B2FAE754540000F6
S1130D0070470000F0B50A4B1B78002B0CD1094F3B
S1130D10094E0A4D0024DE515A1914600433182B6D
S1130D20F9D10122024B1A708000024BC150F0BD70
S1130D30A2000020A4000020010D0000EC0000200F
S1130D4000B583B009236A4613700133537001332D
S1130D5093700133D3700133137101335371034B17
S1130D6098476B46185603B000BDC046C90C000036
S1130D7010B5024B1B680020984710BDA40000204A
S1130D8010B5024B5B680120984710BDA4000020F9
S1130D9010B5024B9B680220984710BDA4000020A8
S1130DA010B5024BDB680320984710BDA400002057
S1130DB010B5024B1B690420984710BDA400002005
S1130DC010B5024B5B690520984710BDA4000020B4
S1130DD010B5082803D880001C4B1B589F460020E0
S1130DE032E01B4B18692FE01A4B1B6A9B059B0FC3
S1130DF01948D84028E0164B586925E0144B1B6865
S1130E0000209B0720D513491022CB681A42FCD03E
S1130E100F4B1A6824231340042B01D00F4813E00E
S1130E2000200F4B98470A4B9B681B041B0C58432C
S1130E300AE05023074AD35C00205B0704D5044B27
S1130E40D86801E08020000210BDC0466C54000048
S1130E50BC0000200008004000127A00006CDC0294
S1130E605914000070B50C490B6A047885784078F1
S1130E700122104080014026B34303432A40D2019B
S1130E808020834313430322224012020348034079
S1130E9013430B6270BDC04600080040FFFCFFFF17
S1130EA0F0B5DE4657464E464546E0B50100264BB2
S1130EB09B469B8A45780078424242419146887815
S1130EC0CA7894460A7990464E7B0F7B8C7B8A685D
S1130ED01E494A6101214A469200914604229343E5
S1130EE04A46134342460A40D2009046082293439E
S1130EF04246134362460A40120194461022934329
S1130F0062461343084040012022934303430F40A9
S1130F10BF01402083433B430E40F60140308343EE
S1130F203343793805402D02094803402B432140BF
S1130F300903084803400B435A4693823CBC90463D
S1130F409946A246AB46F0BD00080040BC00002014
S1130F50FFF8FFFFFFEFFFFF10B5037A9B061B0CA2
S1130F6042899205920D134318494B608379C279E3
S1130F70134342888488224313434278D2011343A3
S1130F800B600378042B11D0202B0ED1037B9B061E
S1130F90028A1343C28912040D490A4013430B4ABF
S1130FA0936011680B4B0B43136010BD037B9B06CE
S1130FB0028A1343C289120405490A401343034AAF
S1130FC09360136804210B431360EEE7BC00002018
S1130FD00000FF0324040000082803D88000254BE8
S1130FE01B589F46172044E0234A136A02210B43EF
S1130FF0136200203DE0204A936902210B43936170
S1131000002036E01C4A138A02210B43138200207D
S11310102FE0194A938A02210B439382002028E08F
S113102016490B68022213430B60134B9A84190070
S11310300E32CB681A42FCD0104A91680E4BD9622A
S113104052689A6200229A8419001032CB681A42BC
S1131050FCD00A4B1B689BB2074A9384002008E02B
S1131060054944228B5C022003438B54002000E09A
S1131070002070479054000000080040BC0000208D
S1131080F0B5CE46474680B58FB0C222D200504B51
S11310909A60504A53681E218B431C390B4353609A
S11310A0032201AB1A7000244B4DE0B201A9A847FA
S11310B00134252CF9D10AA80023037083708022FF
S11310C012028260C37001220271037383730532BA
S11310D042704373414B98470520414B98473C4924
S11310E00222CB681A42FCD0394A938A80210B43EE
S11310F0938205AB00210022598099809A71DA719C
S11311003F3159813B3919705A70364B1B689B0E1D
S11311103F2B5BD005A80372B723DB0003820723B0
S113112003733833C381304B984704A800254570B6
S11311300126867005702D4B98470620284FB84726
S11311402B4B984701AC0296657025726572052396
S1131150237021000120274B994698470120264BF4
S113116098469847666065700623237025726572F9
S113117021000220C8470220C04726702100002019
S1131180154B984700201D4B98470720B847104936
S1131190D022CB681340D02BFBD1194A0023137201
S11311A053729372D37201A901224A604B700B727D
S11311B04B7207330B7000200E4B984700200E4BE8
S11311C098470FB00CBC90469946F0BD203BA1E770
S11311D000080040004000413D140000A10E000042
S11311E0D90F000024608000590F0000650E000034
S11311F00512000029120000E1120000B1130000E2
S113120000040040064A936908210B4393610122BC
S1131210044B1A7019000B781342FCD17047C04676
S113122000040040000C004070B5060004000D7876
S11312302D0205434B78002B02D08023DB021D4393
S11312404B7A002B02D080231B031D4348680128DE
S113125010D9431E184234D1022830D90223002267
S113126001325B009842FBD81202324314008023FF
S11312705B031D430B7A002B02D080239B031D4389
S1131280134A53785BB2002BFBDB124B9847124B8B
S11312901E700F4A53785BB2002BFBDB0C4B9C6037
S11312A01A0053785BB2002BFBDB094A5368802198
S11312B049020B401D435560084B984770BD0022FE
S11312C0D2E70402344380239B021D43D2E7C04685
S11312D0000C004079020000080C0040B902000034
S11312E010B504000B4A53785BB2002BFBDB0A4BAE
S11312F098470A4B1C70074A53785BB2002BFBDB00
S1131300044A516880235B020B435360044B9847A3
S113131010BDC046000C004079020000040C0040DF
S1131320B902000070B504001A4A53785BB2002B6E
S1131330FBDB194B9847194B1C70164A53785BB268
S1131340002BFBDB134E7068C004C00E144B98478F
S11313500500124B1C707668F602F60F114B1C70D8
S11313600C4A53785BB2002BFBDB0A4B9C682402CB
S1131370240C0D4B9847002E07D1012C07D92100CE
S113138028000A4B9847050001E00134E540280095
S113139070BDC046000C004079020000040C0040FF
S11313A0D10D0000080C0040B9020000F51800003F
S11313B010B50400064B9847064B1C70064A538828
S11313C08021C9010B435380044B984710BDC0468C
S11313D079020000020C0040000C0040B902000039
S11313E010B504000F4B98470F4B1C700F4A5388DD
S11313F01B05180F53880E490B40538053880D4921
S11314000B40538011008022D2014B881342FCD13F
S113141006494A8803020648024013434B80064BA0
S1131420984710BD79020000020C0040000C0040F7
S1131430FFF0FFFFFFBFFFFFB902000010B50C78FB
S113144024020443024B9847A4B2024B5C8010BDB3
S1131450E1130000000C004010B50400064B98474F
S1131460064B1C70064B5C882405240F054B9847DB
S11314702000054B984710BD79020000020C004083
S1131480000C0040B90200002513000030B5D378E9
S1131490002B35D11378802B29D01B0680246402BD
S11314A0234354780225AC4306D19478002C20D1F0
S11314B08024A402234341605478013C012C1CD9AC
S11314C00D042D0CA024E4052C431C4384620D0C54
S11314D0D02424062C431C438462D478002C22D1CB
S11314E05B031CD59378012B1ED0416117E00023C8
S11314F0D7E7C024E4022343DDE70D4C2340DFE7B4
S113150041600C04240CA023DB05234383620C0CF0
S1131510D0231B0623438362D378002B03D1537853
S1131520013B012B02D930BD8161F8E78160FAE704
S1131530FFFFFBFF10B50A00C1090023002904D1F5
S11315404309DB0105498C4663441F2420400121E3
S113155081401800024B984710BDC046004400412A
S11315608D1400007047000010B5054B9847054BDB
S11315709847054B9847054B9847054B984710BD2E
S113158081100000E90200006515000065150000E7
S113159065150000FEE70000F8B52A4A2A4B9A4276
S11315A011D01A00294B9A420DD2294A03339B1AAF
S11315B09B0801339B000022234822498C58845005
S11315C004329A42FAD1234A234B9A420AD2D34391
S11315D021495B1803218B4304339B18002102C269
S11315E09342FCD11D4AFF211D4B8B439360FD396F
S11315F090235B001B4AD1501B4AD3780325AB438D
S113160002242343D370D3780C27BB4308263343E7
S1131610D370164B987B302290432022104398734A
S1131620997BB943314399739A7BAA4322439A73B2
S11316300F4A536880210B4353600E4B98470E4B5F
S11316409847FEE7AC560000000000207C00002014
S1131650040000207C0000204C01002000ED00E08C
S113166000000000007000410050004100480041AB
S1131670004000417D3800001D1800000300064AA8
S11316801268002A04D0044A1068C3181360704713
S11316900249014A1160F6E7D400002050210020DD
S11316A010B502490248034B984710BD3C01002085
S11316B014010020D108000070B5124B5A781B7831
S11316C05B00D8B2104B1870D309104A1370C018BD
S11316D00F4B9847FC2189050E4B98470E4B186019
S11316E00E4C0F4B9847230005220E4DA8470721A7
S11316F020000D4B98470522202120000B4B9847D2
S113170070BDC046DC00002004010020050100205B
S11317100D1E0000CD1B0000D8000020100000208A
S11317203937000031380000D1010000C53800000D
S113173030B58FB001AB64220192224A029200229A
S113174003921A731A768021890305910121494273
S1131750D982998225315A540B9208315A54013155
S11317605A5401315A54D7321A86174A0892174AE2
S11317700992174D174C01AA17492800A0470028C1
S1131780F9D1134B1C680722E3691A42FCD1236880
S11317900222134323600E4D2868104B98471F23E1
S11317A018401E3B83400E4A1360E8880023102132
S11317B0628B0A4204D101338342F9D31023638339
S11317C00FB030BD480D00000300080003000900FD
S11317D0140100204503000000100042410D0000E8
S11317E000E100E070B5094C002209492000094DD0
S11317F0A847012208492000A847637E0122134319
S11318006376637E01321343637670BD1401002056
S1131810A1160000B9080000B916000070B5244BE9
S11318209847244B9847244A136A20210B43136298
S1131830224A234B5A80234B5622995C01240125CA
S1131840294399543B215A5C0F20824302200243CE
S11318505A5457201A5C2A431A54585C0F220240E7
S1131860202002435A54184B1C70BFF35F8F62B69A
S1131870E1204002154B9847154B9847154B984764
S1131880154B4F221A805C8014495960144B1A80FE
S11318904D3A5A80134A5A60134E0F4D134CFA2096
S11318A08000B04729002000114B9847F7E7C04655
S11318B0691500000D0200000004004017400000FC
S11318C0000C0040004400410C0000201501000001
S11318D031170000E517000008010020E000002097
S11318E03C010020DC0000204D0200001401002017
S11318F0F5080000002243088B4274D303098B428D
S11319005FD3030A8B4244D3030B8B4228D3030CCB
S11319108B420DD3FF22090212BA030C8B4202D36D
S11319201212090265D0030B8B4219D300E0090A95
S1131930C30B8B4201D3CB03C01A5241830B8B429E
S113194001D38B03C01A5241430B8B4201D34B0387
S1131950C01A5241030B8B4201D30B03C01A5241EC
S1131960C30A8B4201D3CB02C01A5241830A8B4271
S113197001D38B02C01A5241430A8B4201D34B025A
S1131980C01A5241030A8B4201D30B02C01A5241BE
S1131990CDD2C3098B4201D3CB01C01A5241830972
S11319A08B4201D38B01C01A524143098B4201D3AC
S11319B04B01C01A524103098B4201D30B01C01AD7
S11319C05241C3088B4201D3CB00C01A5241830851
S11319D08B4201D38B00C01A524143088B4201D37E
S11319E04B00C01A5241411A00D2014652411046DE
S11319F07047FFE701B5002000F006F802BDC046BD
S1131A000029F7D076E770477047C046002B11D104
S1131A10002A0FD1002900D1002802D00021C94397
S1131A20081C07B4024802A14018029003BDC04636
S1131A30D9FFFFFF03B4684601B5029800F006F829
S1131A40019B9E4602B00CBC7047C046F0B5574699
S1131A504E464546DE46E0B5040083B00D0092468E
S1131A6099468B422FD82CD04946504601F0D4FEDB
S1131A7029000600200001F0CFFE331A9846203BCF
S1131A809B4600D574E053465A4693401F00534684
S1131A90424693401E00AF4229D826D05B46A41B81
S1131AA0BD41002B00DA79E000220023009201936B
S1131AB001235A46934001930123424693400093E5
S1131AC019E08242D0D900220023009201930C9B9A
S1131AD0002B01D01C605D600098019903B03CBCF0
S1131AE090469946A246AB46F0BDA342D6D9002201
S1131AF00023009201934346002BE8D0FB077208B1
S1131B001A4346467B080EE0AB4201D1A2420CD8F0
S1131B10A41A9D41012024196D410021013E24187D
S1131B204D41002E06D0AB42EED9013E24196D4141
S1131B30002EF8D15B460098019900196941002BE9
S1131B4022DB2B005A46D3402A004446E2401C00C4
S1131B505B461500002B2CDB26009E40330026003C
S1131B604746BE403200801A994100900191AEE789
S1131B70424620239B1A5246DA40414613004A4605
S1131B808A4017001F4382E7424620239B1A2A00FB
S1131B9046469A402300F3401343D5E742462023A8
S1131BA000219B1A0022009101920122DA40019245
S1131BB082E74246202326009B1ADE402F00B446CB
S1131BC0974066463B003343C9E7C046F8B55746DD
S1131BD04E464546DE46E0B54702460088467F0A43
S1131BE0360EC40F002E47D0FF2E24D0FB008027D2
S1131BF0FF041F43002399469A467F3E43465D02F5
S1131C005800DB0F6D0A000E984643D0FF283BD0E6
S1131C10EB0080250022ED041D437F383618731C29
S1131C2041469B464B46614013430F2B64D875488D
S1131C309B00C3589F46002F42D108239946063B78
S1131C40FF269A46DAE74146022A28D0032A00D121
S1131C50CEE0012A00D0ACE0114000200022CCB23A
S1131C604002D205400AE407104320433CBC90469E
S1131C709946A246AB46F8BD002F15D104239946D8
S1131C80033B00269A46B9E7FF200222002DC5D067
S1131C900322C3E7002D19D100200122BEE701244D
S1131CA0FF220C400020DBE7380001F097FD762688
S1131CB0431F9F4000237642361A99469A469DE771
S1131CC00C239946093BFF269A4697E7280001F022
S1131CD085FD431F9D4076235B42181A00229DE731
S1131CE080200024C003FF22BAE73D005246ABE740
S1131CF03D0021005246A7E73B0C9C462A04120CE7
S1131D002B0C1400604665463F043F0C7C43424361
S1131D105D437B43270C9B18FF18BA4203D98023E9
S1131D205B029C46654424043A04240C1219930172
S1131D305C1EA3413F0C920E7D191A43AD0115435D
S1131D402B0104D501235E466A081D401543320069
S1131D507F32002A25DD6B0704D00F232B40042B90
S1131D6000D004352B0103D53200274B80321D40AF
S1131D70FE2A94DC0124A801400AD2B20C406FE789
S1131D808020C003074207D0054205D12843400202
S1131D90400A4446FF2263E738434002400AFF22D8
S1131DA05EE70124A31A1B2B05DD0C400022002052
S1131DB056E75E46CBE72A002020DA40C31A9D404E
S1131DC02B005D1EAB4113435A0704D00F221A4067
S1131DD0042A00D004335A0104D5012401220C4002
S1131DE000203DE701249B01580A0C40002237E7FC
S1131DF080200124C00328434002400A0C40FF22F3
S1131E002EE7C046B4540000FFFFFFF770B500286A
S1131E1030D0C317C4185C40C50F200001F0DEFCAD
S1131E209E231B1A962B0DDC9622D21A94402A006C
S1131E306402640ADBB26402DB05600AD207184359
S1131E40104370BD992B19DC9922D21A002A29DD7E
S1131E5094402200144C1440510704D00F210A402E
S1131E60042A00D00434620113D4A401640ADBB24E
S1131E702A00E0E7002200230024DCE705222100F9
S1131E80121AD140B922D21A9440621E94410C43D2
S1131E90DAE7054B2A001C409F23A4011B1A640A9D
S1131EA0DBB2C8E72200D5E7FFFFFFFBF8B54546E4
S1131EB0DE4657464E460C03E0B54E00C90F884631
S1131EC00D00610A440F0C43C70019035800DB0FCF
S1131ED09B464B0A510F0B43760D400D1900D2005F
S1131EE0D84500D1AEE0351A002D00DCF6E000281C
S1131EF00FD1134300D1DBE06B1E002B00D037E180
S1131F00BA1A9742BF41641A7F42E41B01261700A4
S1131F1024E0C64B9E424DD080231B041943382D28
S1131F2000DD07E11F2D00DD38E12020431B9A4628
S1131F300B0050468340994613004846EB40184333
S1131F40030050468240501E8241E9401A43BA1AA7
S1131F50611A9742A441170064420C1B230262D504
S1131F606402650A002D00D1DFE0280001F036FC90
S1131F700300083B1F2B00DDD2E020223C00D21AD4
S1131F809D40D4409F4025439E4200DDC4E09E1BFB
S1131F90731C1F2B00DDF1E0202238002900D21A27
S1131FA0D840914097402C000143781E8741DC4083
S1131FB000260F437B0709D00F233B40042B05D099
S1131FC03B1DBB42BF417F42E4191F0023022CD5B5
S1131FD0964B01369E4200D19AE04546944BFF0849
S1131FE01C406007760564020743240B760D00212C
S1131FF02403230B0C0D8F4A24051C431440330582
S113200023435B00ED075B082B43380019003CBCFD
S113201090469946A246AB46F8BD6446044300D1B7
S113202011E2040067467B07C6D145466007FF08F6
S11320300743E4087D4B9E4230D024037605240BED
S1132040760DD4E7331A9A46002B78DD002831D078
S113205076488642AED08020000401435346382B94
S113206000DCE9E00A43511E8A410021D219BA4238
S1132070BF4109197C4217000C192302D3D56B4BBD
S113208001369E4200D13AE10120694B1C407B0895
S113209007401F43E007074364088BE723003B43E3
S11320A000D1CBE18022120314432403240B9EE7C6
S11320B02E007FE70800104300D1B4E0581E00282A
S11320C000D0DEE0BA18BA429B4164185B42E418BF
S11320D0170001262302A6D50226D5E7002D6ED1CE
S11320E0701C4005400D012800DCF9E0B81A844654
S11320F087428041E51A40422D1A280200D489E023
S1132100D71BBA4292411C1B5242A51AD84629E752
S11321104546002400276AE7454CF61A2C4049E757
S11321203D002838854000272EE7380001F056FB93
S113213020301DE70A43511E8A41002107E7002B86
S113214000D0F3E0701C43055B0D012B00DCADE017
S1132150364B984200D1D1E0BA18BA42BF41641854
S11321607F42E419E707520817436408060021E791
S11321702E48854200D193E01D00D0E629001F3E81
S1132180F140202B00D18DE04022D31A9D402F43F3
S11321907D1EAF4100240F43002644E72B000800B6
S11321A0203BD8400300202D00D17DE04020451B7A
S11321B0A9400A43511E8A4100211A43C7E6002E52
S11321C050D01A4EB04257D080266B4299463604FE
S11321D034434B46382B00DDD6E01F2B00DD35E1C0
S11321E02026F51A2600AE40B2463E00DE40AC463C
S11321F0350056462E436546AF407D1EAF41DC4058
S11322003743D71BBA4292410C1B5242A41A060010
S1132210D846A3E6644667462C4300D0A2E60025D0
S11322200026002706E71E00C4E6C046FF0700009C
S1132230FFFF7FFFFFFF0F801F2B63DC2020C31AEB
S1132240080098409C46834653461000D84003003B
S11322505846184363469A40531E9A4153460243D4
S1132260D94003E726003E4306D0EB439946002BB2
S1132270C7D0944EB042ACD10C0017000600D8462B
S113228098E6904B9A450BD08246E7E6002800D0AA
S11322909EE01800104300D1E9E01C001700D84666
S11322A0884E87E6002572E7002182E723003B433E
S11322B0002E00D0ABE0002B00D1E7E00B0013436D
S11322C000D177E6BA18BA42BF4164187F42E419D4
S11322D0230200D4F2E07C4B17001C40060069E6A0
S11322E020003843002ED1D100285BD11C001443B8
S11322F000D1A8E01C001700D8465BE606000024C5
S1132300002797E650460B002038C34099465346B1
S1132310202B00D195E0402350461B1A99400A43D4
S1132320511E8A414B4600211A439FE6002E30D1AC
S113233026003E4367D0DB439A46002B1CD0614EF7
S1132340B04260D05346382B00DD96E01F2B00DDF1
S11323509FE02026F31A26009E409C46B34653462F
S11323603E00DE4033005E461E4363469F407B1EB4
S11323709F415346DC403743BF189742924164184B
S11323805242A418060078E627437C1EA741002485
S113239037E74C4EB04236D080265B4236049A462C
S11323A03443CFE71800104300D103E6B81A84463B
S11323B06745AD41E01A6D42401B050200D42CE68E
S11323C0D71BBA4292411C1B5242A41AD846F1E5CB
S11323D01800104300D163E7F8086707074380201B
S11323E0E4080003044208D0DD08054205D1D20800
S11323F0590711430F002C00D8467B0FE4001C43FF
S1132400FF00304ED6E50C0017000600D2E5002B85
S113241038D00B00134300D142E7F808670707439D
S11324208020E40800030442E7D0CB080342E4D14F
S1132430D208490711430F001C00DEE700270024DF
S1132440D5E500216BE700250027F3E54E4625007E
S1132450203EF5404B462E00202B2DD04025ED1A72
S1132460AC4027437C1EA74100243743C9E680249F
S113247000252403134E0027DCE527437C1EA741D7
S1132480002479E70C0017000E4E93E50C001700AA
S113249090E556462300203EF34099465346202BB0
S11324A00ED0402356469B1B9C4027437C1EA741CD
S11324B04B4600241F435FE70024D2E71700B2E530
S11324C00024F2E7FF070000FFFF7FFFF0B5574647
S11324D04546DE464E46E0B54C000E0387B08346C3
S11324E092461D008046360B640DCF0F002C4FD052
S11324F06F4B9C4235D08023420F1B04F6001343DC
S113250033439946C30098466A4B00269C460023F1
S1132510644403932B031B0B9B466B00ED0F504647
S11325205B0D01955ED0624A934253D05A46D10066
S11325308022400F120402430A4393465246D100BC
S11325405C4A944600226344380068408446029002
S1132550E41A16430F2E00D9B4E0574BB6009B592A
S11325609F460300334399466CD1002398460233B7
S113257008260393CEE7CB464146039A0197022AE5
S113258065D1019B4A4C9C460023002298466BE08F
S11325900300334399464ED0002E00D1BCE13000F5
S11325A001F01CF903000B3B1C2B00DDACE11D22E8
S11325B0D31A5A460100DA4008398E4013003343D7
S11325C099465B468B40984600233C4C0026241ACF
S11325D003939FE751465A46114329D1002293465B
S11325E00232B1E7594601431ED05B46002B00D1AD
S11325F09EE1584601F0F2F803000B3B1C2B00DD72
S11326008FE102005946083A91408B461D21CB1AAE
S11326105146D9400B0059460B4351469B469140C5
S1132620264B00221B1A8FE7002301229B468BE7CF
S11326305146032288E700239846013304260024E8
S1132640039367E70323B14603930C2662E7032A47
S113265000D15CE2019B012A00D0E4E113409C46D6
S1132660002300240022984600211203130B0A0DB4
S113267012051A432305124C404622401343624676
S11326805B00D2075B081343190007B03CBC9046BB
S11326909946A246AB46F0BD002380229C46120315
S11326A09846034CE0E70023014C00229846DBE700
S11326B0FF07000001FCFFFFF45400000DFCFFFFC6
S11326C0FFFF0F80D94500D939E100D134E100235F
S11326D046464D469A46013C5B460A0E1B021A4387
S11326E00B02170C039313041B0C390028009046AB
S11326F00193FFF7FFF80200019B83465A43280029
S113270039009146FFF77CF9350C09040D43A945BE
S11327100DD95B464544013BA84500D93AE1A9459A
S113272000D837E102235B429C464544E3444B46D0
S1132730EB1A390018000493FFF7DCF8019B05003D
S11327404343390004989946FFF75AF933040904BE
S11327501B0C0B43994509D943446A1E984500D97B
S11327601AE1994500D817E1023D43444A469B1AB1
S11327705A4612042A4303999346100C0A0C9146B4
S113278009045A46090C4E460D001204120C454326
S1132790059151437243704352190E0CB21895427D
S11327A003D980256D02AC466044150C090412045B
S11327B0090C28185218834200D2CEE000D1C8E098
S11327C01D1A53469E1AB24592415242AB1A9A467A
S11327D0984500D117E139001800FFF78BF8019BE9
S11327E005004343390050460493FFF709F9049860
S11327F00B04310C1943884209D941446B1E8845A6
S113280000D907E1884200D804E1023D4144049B19
S1132810CB1A180039000493FFF76CF8019B824629
S11328204343390004980193FFF7EAF801980B0435
S11328303104090C194388420DD953464144013BE4
S1132840884500D9E8E0884200D8E5E002235B42ED
S11328509C464144E244019B2D04CE1A514629432F
S1132860059D4F462A000B04080C1B0C5A43454394
S11328707B4378435B19170CFB189D4203D98025D1
S11328806D02AC4660441D0C12041B04120C281883
S11328909B18864200D293E000D18EE001231943B5
S11328A0A04BE318002B00DC99E04A0700D09EE01F
S11328B05A46D20106D55A469B4B1A40802393466A
S11328C0DB00E318994A934268DD0123029A984C8D
S11328D01A400023944698460022C5E680224B46BF
S11328E0120313420AD05B46134206D11A43120361
S11328F0120BAC4688468E4CB6E64B461A4312037E
S1132900120BBC468A4CAFE603005A46283B9A4059
S113291000239146984657E6584600F05FFF203062
S113292040E603005246283B9A400021934677E64E
S113293000F054FF20305FE6884500D2C7E64B46DE
S1132940DE075D0843465B081E434346DB079A46A1
S1132950C2E60025924500D333E7039E5946B446A8
S1132960E244B245AD416D424544EB180139984506
S113297007D2984200D97FE000D1BCE01D1A8B46F3
S11329801FE79845FAD1039D5545F2D943468B4636
S11329901D1A16E79B46CAE61500E7E65A46C9081B
S11329A052070A435B0590465C0D5A46012302997F
S11329B052021940120B8C4656E6002B00D16FE7E9
S11329C046444A1EB04529D91100864200D065E725
S11329D0039A934200D061E762E701214942012052
S11329E0C21A382A21DD029B03409C4638E60F2296
S11329F00A40042A00D15BE70A00111D914292416A
S1132A005242934454E7474BE318002BE5DD01227F
S1132A105242F2E71D00FAE69A461CE7B04239D862
S1132A206ED011003AE702933AE71F2A3CDC2023D8
S1132A309B1A0C005846994098404B1E99415B469E
S1132A40D440D340204308431A00430709D00F233E
S1132A500340042B05D00100081D88429B415B42C2
S1132A60D21813023AD50123029A01241A400023F2
S1132A70944698460022F7E5022149428C46039D7C
S1132A80E344AC46E244AA45AD416D424544ED18E9
S1132A902D1A96E68A1E03994D008D4289414942BA
S1132AA04144761803958FE71F204042C31A5846C5
S1132AB0D8400300202A28D040205D46821A954041
S1132AC029434A1E91411943072300220B4009D090
S1132AD00F2300220B400800042BBDD10100530733
S1132AE05202120BC9081943012388460299002493
S1132AF019408C46B8E55245BED88B46002560E6A1
S1132B00039D9D42C6D3110062E70025D8E78022C9
S1132B105B4612031A43019B1203120B9C46884620
S1132B20034CA1E5FF030000FFFFFFFEFE070000CA
S1132B30FF070000F0B557464546DE464E46E0B571
S1132B400C0398464E00230B87B0070092469B4621
S1132B50760DCD0F002E6BD06D4B9E4235D0802468
S1132B605B46420F2404DB0014431C43C300994614
S1132B70684BA3469C4600230027664402934346C1
S1132B801C035A00DB0F5046240B520D984600D10B
S1132B9076E05F4B9A426DD08023410F1B040B43B8
S1132BA05C49E4008C461C43C30000206244414657
S1132BB0B6186940721C0191944607430F2F00D93F
S1132BC0B0E0554ABF00D25997465B460343994645
S1132BD000D087E000239B46023308270293CEE708
S1132BE042460192022867D0032800D10EE2012850
S1132BF000D062E10023002400229946019901409B
S1132C00CDB2002112030B0D120B1B051343434AD3
S1132C10240513401C436400ED0764082C43484614
S1132C20210007B03CBC90469946A246AB46F0BD95
S1132C30034399464FD05B46002B00D189E15846A7
S1132C4000F0CCFD03000B3B1C2B00DD7AE11D22C0
S1132C50D31A3A0001005C46DA4008398C4013006C
S1132C608F4023439B46B94600232D4E0027361A36
S1132C70029384E7534623432AD10024022096E793
S1132C805346234320D0002C00D157E1200000F00C
S1132C90A5FD03000B3B1C2B00DD49E11D21CB1AD4
S1132CA051460200D9405346083A944093400C439D
S1132CB01B4A121A00207AE70125019B144C1D407F
S1132CC00023002299469CE70024002201206EE79D
S1132CD0534603206BE700239B4601330427002659
S1132CE002934CE7032381460C27029347E7802293
S1132CF00023002512039946054C82E75C464B46A7
S1132D0002986FE75C464B46019502986AE7C04615
S1132D10FF07000001FCFFFF34550000FFFF0F8098
S1132D200DFCFFFF4A464946170C1A0C1B041B0CEA
S1132D3008041900000C41431500884619007D431E
S1132D407943039589462900150045434D4402956E
S1132D5045462D0CAA46029D5544A94506D98A46E6
S1132D60802149028946CA4451460391290C0491A1
S1132D70414609042D04090C88462900250C240425
S1132D804144240C059121004143884621007943A4
S1132D908A466843414650448146080C48446F4380
S1132DA0824503D98021490289464F44010C894652
S1132DB039004944029141460F0404993F0C884666
S1132DC00004C01980444146049159460F0C09047B
S1132DD0090C884659438A4639005143894641467D
S1132DE04A435146090C8B467B43D2185A449342BA
S1132DF003D980235B029B46D94451460904090C3C
S1132E008A46414661437C43130C12044B445244AA
S1132E10A1468A463C0041466C434D4351464D44CD
S1132E200F0C7D19A94503D98021490288464444E1
S1132E30049F0399B84641448B46834580414142EF
S1132E408846514608042F04000C3F18584602993E
S1132E5010188946904292414F44BA4652429946CC
S1132E609346C244D144CB448F42BF41C2458941B9
S1132E7099459B41934592417F4249422D0C5242D0
S1132E800F435B4213437F19FF185B463C19DB0D6C
S1132E90059A64021C43430213435D1EAB415A4628
S1132EA0C00D034352021343E20156D501205A08D0
S1132EB003401343E207134364085A48604400285C
S1132EC04DDD5A0709D00F221A40042A05D01A1DD5
S1132ED09A429B415B42E4181300E20104D580202E
S1132EE0514AC00014406044504A904200DDE3E679
S1132EF00125DB0862071A436402019B9146220BF9
S1132F004405640D1D407CE680225946120311429B
S1132F1008D0144206D122431203120B45469946A7
S1132F20434C6EE65B461A431203120B404C68E6B0
S1132F3003005446283B9C400023B9E600F04EFCB5
S1132F402030A6E60300283B9F400023BB46994659
S1132F508AE600F043FC203074E6B446ADE7012570
S1132F602A1A382A06DD019B00241D400023002272
S1132F70994646E61F2A21DC20252000AD1A1E00B2
S1132F80AB40A840D6405D1EAB4130431843D4400B
S1132F90430709D00F230340042B05D00300181D59
S1132FA098429B415B42E418230221D50125019BF1
S1132FB001241D4000230022994622E61F252100FA
S1132FC06D42281AC1400800202A1DD05F35AA1A74
S1132FD0944023435C1EA341072503431D40002264
S1132FE0002D09D00F2200241A401800042AD6D13B
S1132FF0030065076402220BDB082B430125994675
S1133000019B00241D40FCE50024E2E78022012509
S11330101203224301991203120B0D409946044CEA
S1133020EFE5C046FF030000FFFFFFFEFE070000C0
S1133030FF070000F0B54646D6464F460C03C0B520
S1133040CD0F4E00610A440F0C43C1005800400DDF
S113305084468A460F001903500F490A0143C648A3
S1133060760DA846DB0FD200844500D1D8E00120BC
S11330704340AB4200D1A6E06046351A002D00DC87
S113308005E1002810D10B00134300D1D7E06B1EDB
S1133090002B00D04BE153469F1ABA458041641A75
S11330A04042241A01261EE0B34B9E4248D080239E
S11330B01B041943382D00DD19E11F2D00DD4CE1FF
S11330C020230F005B1B10009A409F40E840531ED2
S11330D09A41E940074317435346DF1B611ABA4537
S11330E0A44164420C1B230200D4C5E06402650AB7
S11330F0002D00D1F6E0280000F070FB0300083B2F
S11331001F2B00DDE9E020223C00D21A9D40D44070
S11331109F4025439E4200DDDBE09E1B731C1F2B5A
S113312000DD0AE120223800D21A290097402C0041
S11331309140D8407A1E9741DC40002601430F435A
S11331407B0709D00F233B40042B05D03B1DBB421A
S1133150BF417F42E4191F00230225D5864B013667
S11331609E4200D1AFE0854B01251C4043466207D7
S1133170FF08640276051743240B760D1D400021D9
S11331802403230B0C0D7E4A24051C4314403305F1
S113319023435B00ED075B082B43380019001CBC7C
S11331A090469946A246F0BD012543466207FF08B2
S11331B01743E4081D40704B9E4236D02403760525
S11331C0240B760DDBE76346F31A002B00DC94E056
S11331D06046002835D068488642B1D080273F0435
S11331E03943382B00DCFDE00A43170000217A1E26
S11331F09741574457458041091944420C19230209
S11332003AD55D4B01369E4200D14BE101225B4B26
S11332101C407B0817401F43E207174364088FE7ED
S11332200800104300D024E721E723003B4300D1EA
S1133230B9E18022120314432403240B9FE72E00D8
S11332407EE70800104300D1CAE0581E84460028D7
S113325000D0E7E0524452458041641840422418AB
S113326017000126230207D50226CFE764462C4324
S113327000D1B3E12C0067467B0700D062E7630707
S1133280FF081F4301254346E4081D4093E7002D32
S113329078D1751C6D056D0D012D00DCF2E05046F2
S11332A0801A8245BF41651A7F42ED1B844628027D
S11332B000D48CE05046171ABA4292410C1B554276
S11332C0651B984614E70125434600241D4000274A
S11332D055E72A4CF61A2C4032E73D002838854041
S11332E0002717E7380000F079FA203006E70A4390
S11332F0170000217A1E9741EEE6002B00D0E5E08E
S1133300731C9C465B055B0D012B00DC9FE01A4B94
S11333109C4500D1C5E05244524580416418404266
S11333202418E707520817436408664608E712485A
S1133330854200D185E01D00BCE629001F3EF14016
S1133340202B00D17FE04022D31A9D402F437D1EC5
S1133350AF4100240F4300268EE72B000F00203BD3
S1133360DF40202D71D040235D1BA9400A43511E2C
S11333708A4100211743AFE6FF070000FFFF7FFFEC
S1133380FFFF0F80002E3ED0B34EB44545D08026BB
S113339036046D423443382D00DDA8E01F2D00DDD6
S11333A01FE1202627005046761BB740E84007431C
S11333B05046B040461EB041EC403843171ABA425A
S11333C092410C1B5242A41A664698468BE6644608
S11333D067462C4300D08BE6002500260027EAE64A
S11333E01E00ADE61F2B60DC2027F81A0F00844670
S11333F087401000D840074360468240501E8241F7
S1133400D9401743F5E626005046064305D0ED4360
S1133410002DD3D0904EB445BDD10C0017006646A4
S113342098468DE68C4883420BD06346D9E6002D3E
S113343000D096E00800104300D1E2E00C00170031
S11334409846854E7CE6002580E700218EE7230020
S113345050460343002E00D0A8E0002B00D1DEE04C
S11334600B00134300D16BE652445245804164186B
S1133470404224181700230200D4FDE6774B664629
S11334801C405DE6250050460543002ECFD1002D9B
S11334904FD10C00144300D1A0E00C001700984653
S11334A04EE666460024002785E61F000800203FFC
S11334B0F8400700202B00D18EE04020C31A994029
S11334C00A43511E8A410021174392E6002E14D16B
S11334D026005046064362D0DB43002B5CD187189C
S11334E09742924164185242A418664687E65046B1
S11334F02043441EA041002460E7574EB4454ED0FB
S1133500802636045B423443382B00DD7FE01F2BDA
S113351000DD8BE0202627005046F61AB740D8403D
S113352007435046B040461EB0410743DC40BF1835
S1133530D6E70D00154300D102E65046801A8245B5
S1133540BF41651A7F42ED1B8446280200D48DE6F4
S11335505046171ABA4292410C1B5242A41A98467A
S1133560EEE50D00154300D16BE750466707C00830
S113357007438020E4080003044207D0CD08054235
S113358004D12C009846D70849070F437B0FE40069
S11335901C43FF00304ED3E52F4EB445B4D10C008C
S11335A017006646CCE500270024E8E5002B39D057
S11335B00B00134300D144E7C0086707074380208A
S11335C0E40800030442E1D0CB080342DED1D7086B
S11335D049070F431C00D9E7002171E700250027A4
S11335E0E9E52E002700203EF740202D2FD040266D
S11335F0751BAC4050462043441EA0410024384370
S1133600DCE6802400252403134E0027D3E550462E
S113361020430700781E87410024BF1860E70C0090
S113362017008DE50C0017000B4E89E51E002700DE
S1133630203EF740202B0CD04026F31A9C405046E5
S11336402043441EA04107430024BF1848E7002438
S1133650D0E70024F3E7C046FF070000FFFF7FFF29
S113366030B5134D0A034B00120B5B0DC90F002438
S1133670AB4210DD0F4CA3420FDC80240E4D6403DB
S11336802243ED1A1F2D0BDD0C48C31ADA405442B5
S1133690002900D11400200030BD094BCC18FAE7F2
S11336A0084CE840A44663449A400243EFE7C0460E
S11336B0FE0300001D040000330400001304000096
S11336C0FFFFFF7FEDFBFFFF10B5041E28D000F0C5
S11336D085F8154B154A1B1AD21A1F2A15DD144AF0
S11336E0D21A9440002224035B05240B5B0D0021B5
S11336F0100024030A0D240B120522430D4C1B0554
S1133700224013435B00590810BD210091400A0078
S11337100B21081AC4405B052403240B5B0DE6E768
S1133720002300240022E2E71E040000330400000A
S113373013040000FFFF0F804100090E4B1C70B5FD
S1133740DBB24602750AC40F012B14DDE0239B0093
S11337506D07360BCB1800210A0D280012051C4DED
S113376032435B052A405B0813435B00E4075B08B4
S11337702343190070BD002914D1002D1ED0280048
S113378000F02CF80A281CDC0B232A001B1ADA4050
S1133790030015339D400F4B12031B1A5B05160BD8
S11337A05B0DD8E7002D06D0320B802636036D075B
S11337B01643094BCFE7084B0026CCE7002300262D
S11337C0C9E703002A000B3B9A400025E3E7C04603
S11337D0FFFF0F8089030000FF0700001C21012365
S11337E01B04984201D3000C10391B0A984201D3E0
S11337F0000A08391B09984201D30009043902A2BE
S1133800105C40187047C046040302020101010124
S1133810000000000000000010B5002903D1FFF7EC
S1133820DDFF203002E0081CFFF7D8FF10BDC046C2
S1133830F0B51C0085B000231500002206000F001F
S113384001F09EFC2300002803D02D23013D2370AA
S1133850631C002208490392673202920193009587
S11338603B003200086800F0AFF8431E9841404224
S11338700440200005B0F0BD1800002070B50026FB
S11338800C4D0D4C641BA410A64209D1002601F076
S1133890F9FE0A4D0A4C641BA410A64205D170BD62
S11338A0B300EB5898470136EEE7B300EB5898475E
S11338B00136F2E790560000905600009056000042
S11338C09456000003008218934200D17047197087
S11338D00133F9E7F0B58BB00E0010A910C90D78CB
S11338E008A9049107A9039109A90291611C0191F6
S11338F00221009100F03CFD099F324B9F4205D10B
S11339000100300000F0A8FC0BB0F0BD0378129A5F
S1133910411C3370224309D11400731C08781A0027
S1133920002807D1672D0CD1652514E02E22B31C85
S11339307270F3E7002CF5DD18700131013C01339E
S1133940ECE7472D39D021003020002931DCE34356
S1133950DB171C40121915707B1E951C09932C0053
S1133960002B2CDA2D2353702C3BDF1B0997099E67
S1133970632E0CDD6421300001F002FB03003033C0
S11339802B7064235B425843801909906C1C099D79
S11339900A21280001F0F4FA030002000A20404240
S11339A05843002340193032303022706070A370C5
S11339B0AAE7187001390133C7E74525CBE72B2364
S11339C05370D4E70F270000F0B515001C008DB02C
S11339D014AB1B7806000793002200232800210063
S11339E0139F01F0CDFB002802D080231B06E418AE
S11339F0002200232800210001F0BCFB002806D08F
S1133A0030233B7000237B7038000DB0F0BD514A69
S1133A10514B2800210001F0BDFB00280DD0159B5F
S1133A202A000293079B39000193129B3000013B4B
S1133A3000932300FFF74EFFE6E7129800F074FBB3
S1133A4002000B002800210001F0B8FB0028E6D199
S1133A500022424B2800210001F092FB0AAB0393A1
S1133A6009AB0293129B0BAA01930492032300282F
S1133A7000D1022300932A002300300000F078FCD8
S1133A80374B099A9A4213D03A00129B04789B1A36
S1133A901100FB18099D002C15D101218C46ED1A4B
S1133AA0EE181100002E3BDC002C0ED009960CE021
S1133AB00100380000F0D0FBA6E7013D147001308E
S1133AC009950132E1E7002DF7DC159C002C02D1A9
S1133AD00478002C21D0974202D13022791C3A700C
S1133AE02E2230250A7001264A1C0021099C002C34
S1133AF01EDB002900D0099404781100002C01D0A9
S1133B00002B1DDC1598002807D01800302400284D
S1133B101BDCDA43D2171340C91800230B7073E778
S1133B20002BC1DD3021013B117064460132B7E73F
S1133B30002BDEDD15700134013B01323100D6E784
S1133B4014700130013B0132D6E7147001380132A0
S1133B50DDE7C0462D431CEBE2361A3F0000F03F80
S1133B600F27000070B5466A04000D00002E07D12F
S1133B70102001F0E5F96062466086600660C66068
S1133B80666AF368002B13D0636AAA00DB689B188B
S1133B901868002818D101210E00AE40721D920051
S1133BA0200000F0DBFA00280CD0456086600DE0B0
S1133BB021220421200000F0D1FA636AF060DB685E
S1133BC0002BE1D1002070BD02681A60002303615C
S1133BD0C360F8E770B5446A06000D00002C07D1F5
S1133BE0102001F0ADF97062446084600460C46028
S1133BF0002D07D0736A6A68DB6892009B181A6804
S1133C002A601D6070BDF7B51E0014239C46070092
S1133C100C0000200D698C44634619881B685143CD
S1133C201B0C534389190E0C9B1989B21E0C1B04DF
S1133C305B186146013008C18C468542ECDC002EDD
S1133C401BD0A3689D4212DB63683800591CFFF740
S1133C5089FF2100236901909A1C92000C310C30D9
S1133C6001F078F921003800FFF7B4FF019C2B1D07
S1133C709B00E31801355E6025612000FEBD030052
S1133C80020C0020824201D11B0410301A0E01D113
S1133C9008301B021A0F01D104301B019A0F01D105
S1133CA002309B00002B03DB01305B0000D420209A
S1133CB070470722036810B501001A400DD0012493
S1133CC00020234205D10230034203D0E340200008
S1133CD00B6010BD9B080B60FBE79CB21000002C2E
S1133CE001D110201B0CDAB2002A01D108301B0AC2
S1133CF01A0701D104301B099A0701D102309B082D
S1133D00DA07E8D45B0801D00130E4E72020E0E7DB
S1133D1010B50C000121FFF725FF01234461036165
S1133D2010BDF0B50B691500126989B00C009342FF
S1133D3001DA2C000D0027692E69A268BB1961689D
S1133D400193934200DD0131FFF70CFF03001433AC
S1133D500093009ABB1994469B009C4413000022D4
S1133D60049063451CD32A001434BF00E3191432B1
S1133D70B6000593931902940693069B9A4211D3B5
S1133D80019B002B06DD04235B429C4463461B68B5
S1133D90002B51D0049B019A18001A6109B0F0BDA0
S1133DA004C3DEE71488002C1ED00026009D029F69
S1133DB001CF079508CD039383B2634319006B4683
S1133DC0000C9B896043CB1803999B19090C41187B
S1133DD0180C09180E0C9BB209040B4307990B60CD
S1133DE0059BBB42E4D82E6013681B0C03931ED0C2
S1133DF00026009B029C1B68009807002188039DF5
S1133E009BB2694320C82D0C49198E1931040B4308
S1133E103B6008CC03991B0C4B437968360C89B280
S1133E205B1805999B191E0CA142E6D80360009B00
S1133E30043204330093A0E7019B013B01939FE705
S1133E400323F7B5134005000E001400002B08D01F
S1133E502249013B9A00525800233100FFF7D3FE58
S1133E600600A310019336D06C6A002C07D11020F1
S1133E7001F066F86862446084600460C4606F6A3C
S1133E80BC68002C07D116492800FFF741FF002326
S1133E900400B86003600122019B13420AD0310080
S1133EA022002800FFF73DFF070031002800FFF73C
S1133EB091FE3E00019B5B1001930CD0206800280A
S1133EC007D1220021002800FFF72BFF00232060E8
S1133ED003600400DFE73000FEBDC0466856000002
S1133EE071020000F0B50D0017002B69541185B064
S1133EF0E3180293013301934968AB680390019A74
S1133F00934234DB0398FFF72DFE002302000600E2
S1133F1019001432A3422DDBE343DB171C402B00B2
S1133F201F21A40014192A69143392009A180F400F
S1133F3024D00131C91B8C4600211868B8400143C4
S1133F406046216002CB0434C1409A42F5D8216016
S1133F50002902D0029B02330193019B0398013B89
S1133F6033612900FFF736FE300005B0F0BD0131A2
S1133F705B00C4E7980011500133CBE702CB02C4C5
S1133F809A42FBD8E9E70A69036930B59B1A0ED156
S1133F9092001430143184188918043C04392268BE
S1133FA00D68AA4205D0AA42924101231343180086
S1133FB030BDA042F1D3FAE7F0B50D0085B007009B
S1133FC0110028001400FFF7DEFF061E08D10100CF
S1133FD03800FFF7C7FD01234661036105B0F0BD5A
S1133FE001230193002804DB23002C001D0000237F
S1133FF0019361683800FFF7B5FD2F000022019B93
S11340002669C3601434B300E31802932B69143790
S11340109B00FB18039303009446143320CC04CF75
S11340200192AAB294446A46614692882D0C8A1A77
S11340300199090C691A151449190D1492B209044D
S11340400A431A60039AAC460433BA42E6D802998A
S11340501A008C4205D3043A1368002B0ED0066173
S1134060BCE704CC91B261440D14120C521915141E
S113407089B212040A43AC4604C3E8E7013EEAE706
S1134080F7B51D000121089F1400FFF76BFD2B03FA
S11340906D0006001B0B6D0D24D10193002C27D05D
S11340A068460094FFF705FE009C00281ED0019B83
S11340B020211A00091A8A40C340224372610193E5
S11340C0019CB461631E9C4101343461002D18D0FD
S11340D0124BED1835232D183D60181A099B1860F2
S11340E03000FEBD802252031343D6E77461E7E734
S11340F001A8FFF7DEFD0124019B346173612030C8
S1134100E4E7074BC018074B3860E3189B00F3182B
S11341105869FFF7B4FD6401201ADFE7CDFBFFFF08
S1134120CEFBFFFFFFFFFF3F10B50400172805DC9F
S1134130074BC4001C192068616810BD00200549A4
S11341400022054B013CFEF7F5FC002CF8D1F4E706
S1134150A05500000000F03F000024404A4370B521
S11341601100140000F008F8051E03D022000021FD
S1134170FFF7A8FB280070BD032370B5CD1C9D4339
S1134180083506000C2D1ED20C25A9421DD830007E
S113419000F0E9FE254A14682100002919D1244CB5
S11341A02368002B03D1300000F044F8206029007C
S11341B0300000F03FF8431C2CD10C233000336056
S11341C000F0D2FE03E0002DDFDA0C233360002080
S11341D070BD0B685B1B1AD40B2B03D90B60CC1876
S11341E0256003E08C420ED163681360300000F058
S11341F0BBFE200007220B30231D9043C31AE7D0D7
S11342005A42E250E4E74B6863600C00EEE70C00AE
S11342104968C2E70323C41C9C43A042E0D0211A8E
S1134220300000F007F8431CDAD1C6E7E4000020B0
S1134230E8000020002370B5064C05000800236048
S1134240FDF71CFA431C03D12368002B00D02B601C
S113425070BDC04648010020031C0A7801311A7061
S11342600133002AF9D17047F0B503690C6989B0AC
S11342700700059100269C426DDC0B00013C1433C1
S1134280A50003935B1904930300143302935D198F
S1134290049B28681B68591C0193FDF72BFB0190B4
S11342A0B0422DD0039B02989C460696624608CAEB
S11342B09446019A99B251431B0C534389190A0C31
S11342C09B18079302881E0C069B89B2D2180368B8
S11342D0521A190C6B469B8BCB1A11145B181914C8
S11342E092B21B041A43049B069104C06345DDD2B9
S11342F02B68002B04D1029B043DAB422ED33C61BE
S113430005993800FFF73FFE002823DB0025019BB9
S1134310029801330399019308C9028855199AB286
S1134320AA1A05681B0C2D0CEB1A15145B191D1425
S113433092B21B04134308C0049B8B42ECD2029A32
S1134340A300D3181A68002A04D1029A043B9A42A3
S113435009D33C61019E300009B0F0BD2B68002BED
S1134360CDD1013CC7E71A68002AF2D1013CECE741
S1134370F0B516001F00446A9DB00490259D069672
S11343800797002C08D1102000F0DAFD049B586236
S1134390446084600460C460049B5B6A19680029FB
S11343A00BD05A68012393404A608B600498FFF74E
S11343B011FC0022049B5B6A1A60079B002B1FDA26
S11343C001232B607B005B080793079CB74B2200FB
S11343D019931A409A4216D1B54B249A1360069B3E
S11343E0002B03D1240301D100F091FDB14B269A97
S11343F00A93B14B002A01D000F08FFD00F08FFD2D
S113440000232B60E1E7069E079F00220023300073
S1134410390000F0AFFE051E0ED00123249A13606C
S1134420A64B269A0A93002A01D100F078FDA44AEB
S113443026990A6000F073FD1AAB01931BAB00933D
S113444032003B000498FFF71BFE630005905B0DF0
S113445000D17FE03A039B4C120B144321009A4A8B
S1134460300018959E180022984BFEF7E3FD984AF9
S1134470984BFEF75FFB984A984BFDF717FD040035
S113448030000D0000F0A4FF954A964BFEF752FB56
S113449002000B0020002900FDF708FD04000D00B8
S11344A0FFF7DEF80022039000232000290000F02B
S11344B067FE00280ED0039800F08AFF0B0002006C
S11344C02900200000F056FE030058425841039B87
S11344D01B1A039301231693039B162B0FD88249AF
S11344E0DB00C91808684968069A079B00F05CFE5F
S11344F000284BD0039B013B0393002316931A9B84
S11345009E1B00230B933300013B0C9304D5012322
S11345109B1B0B9300230C93039B002B38DB039A08
S11345200C9B944663440C9300230F920893229BA4
S11345300125092B00D991E0052B02DD0025043B60
S11345402293229B981E032800D991E000F00EFDCF
S1134550828429761A9B1B9A9E18644BF218202A8F
S11345600FDD634B0698F318D84040239B1A9C40F8
S11345702043FFF7A9F801235E4C013E0919189363
S113458071E7202306989B1A9840F2E71690B6E745
S11345900B9B039A9B1A0B935342089300230F938C
S11345A0C5E701230E93239B002B65DD1F000D93AC
S11345B0049A546A00226260043211001431994250
S11345C05FD961680498FFF7CDFA049B20605B6AA9
S11345D01B680A930E2F00D905E1002D00D102E1DA
S11345E0069B079C14931594039B002B00DC85E029
S11345F01A000F213C4B0A40D2009B185C681B68D0
S113460010931194039B02241D11EB060AD53A4B17
S11346100D401A6A5B6A14981599FDF757FF0690C6
S113462007910134344E002D30D1109A119B069815
S11346300799FDF74BFF069007917AE00123239A2F
S11346400E939446039B63445F1C0D933B1EAFDCA7
S11346500123ADE70023A5E70023F0E700230E952F
S11346602293013B00220D931F00133323929FE7F3
S113467001230E93023BF5E701230D931F001A005B
S1134680F4E7616852000131616096E701231D423D
S113469008D010981199E41832687368FEF74AFA42
S11346A0109011916D100836BDE7C0460000F07FF0
S11346B00F2700007D560000805600008156000040
S11346C0825600000000F03F01FCFFFF0000F83FAD
S11346D061436F63A787D23FB3C8608B288AC63F04
S11346E0FB799F501344D33FA055000032040000CF
S11346F012040000000010FE78550000039B022401
S1134700002B16D0149815995D420F23CA4A2B40EA
S1134710DB00D3181A685B68FEF70CFA00230690D6
S11347200791C64E2D11002D00D08CE0002B00D037
S113473081E7169B002B00D191E0069A079B10920B
S11347401193109811990022BD4B00F019FD002817
S113475000D184E0002F00D181E00D9B002B3EDDD1
S113476010981199039B00225E1EB64BFEF7E2F9E6
S1134770069007910D9D0134200000F029FE069A51
S1134780079BFEF7D7F90022AF4BFDF78FFB129082
S11347901391129B139CAD4A10931194139B9C1874
S11347A01194002D5ED1069807990022A84BFEF7BC
S11347B041FC109A23000690079100F0F5FC0028B4
S11347C000D001E3A3481399844661440B00069882
S11347D00799109A00F0D4FC002800D0E8E2149B5A
S11347E0159C069307941B9B002B00DA57E1039A50
S11347F00E2A00DD53E1904BD2009B185C681B68C5
S113480008930994239B002B00DBCEE0002F00DDEE
S1134810CBE000D0CFE20898099900228C4BFEF738
S113482089F9069A079B00F0C9FC3E000897002806
S113483000D0A4E20A9B0A9A5D1C31231370039BE7
S1134840013303939FE20122154205D0A418326874
S11348507368FEF76FF901236D10083663E7039E52
S11348603D0089E70A9A691E521917920E9A724BF3
S1134870C900002A4AD05B181A685B680020764990
S1134880FDF724FE109A119BFEF7D4FB0A9B1090AF
S11348901191129306980799FEF7E2FE040000F0C6
S11348A097FD02000B0006980799FEF7C3FB129BC5
S11348B030345D1C1C70109A119B0690079100F017
S11348C05FFC002865D1069A079B00205C49FEF72F
S11348D0B1FB109A119B00F053FC002800D0BEE0FD
S11348E0179B9D4200D17AE7109811990022554BED
S11348F0FEF720F900221090119106980799514B68
S1134900FEF718F9129506900791C3E7591808683D
S11349104968109A119BFEF70DF9109011910A9CA9
S1134920179D06980799FEF79BFE129000F050FD24
S113493002000B0006980799FEF77CFB129B069079
S1134940079130332370179B01340022A34224D1F2
S1134950414B10981199FDF7A9FA02000B00069833
S1134960079900F021FC002800D078E0109A119BF0
S113497000203949FEF75EFB02000B0006980799F8
S113498000F0FEFB002800D129E76B1E1A78302ABC
S113499001D003963FE01D00F7E706980799294BDD
S11349A0FEF7C8F806900791BBE70A9E089A099B90
S11349B006980799FDF78AFDFEF752FE040000F001
S11349C007FD089A099BFEF7B5F80B00020006984C
S11349D00799FEF72FFB2300303333700A9B751CB5
S11349E0EB1A9F424CD102000B00FDF75FFA060060
S11349F00F0002000B000898099900F0C1FB002881
S1134A002CD10898099932003B0000F0B3FB002830
S1134A1001D0E30722D405990498FFF7DBF80023BB
S1134A202B70039B249A01331360269B002B00D127
S1134A3075E21D6073E2C046A05500007855000081
S1134A400000F03F0000244000001C400000C0FCB7
S1134A50000014400000C07C0000E03F039E6B1E79
S1134A601A78392A06D10A9A9A4207D13023137048
S1134A70130001361A7801321A708AE71D00EEE736
S1134A800022CF4BFEF756F8002200230690079130
S1134A902E0000F06FFB002800D187E7BBE70E9AD9
S1134AA0002A00D187E0229A012A6EDC189A002A93
S1134AB067D0C44A9B18089D0B9C0B9A0121D218FD
S1134AC00B920C9A0498D3180C93FFF721F9060063
S1134AD0002C0EDD0C9B002B0BDD0C9A2300944262
S1134AE000DD13000B9AE41AD21A0B920C9AD31A13
S1134AF00C93089B002B1ED00E9B002B5FD0002D27
S1134B0011DD31002A000498FFF79AF9059A010093
S1134B1006000498FFF705F9059910900498FFF72B
S1134B2059F8109B0593089B5A1B04D005990498C7
S1134B30FFF786F9059001210498FFF7E9F80F9B28
S1134B400890002B3DDD1A0001000498FFF778F966
S1134B50229B08900025012B3BDC0025069BAB42E1
S1134B6033D1079B1B03AB422FD1199B079A1342E6
S1134B702BD00B9B013501330B930C9B01330C930E
S1134B8023E036231A9A9B1A95E7089B7D1EAB42B5
S1134B9006DB5D1B002F0BDA0B9BDC1B00238CE771
S1134BA0089B0895EA1A0F9B00259B180F93F1E7C1
S1134BB00B9C3B0081E7089D0B9C0E9E88E7089A9E
S1134BC0B4E7229B0025012BC7DD0F9B0120002B9E
S1134BD00BD0089B089A1B690F9303339B00D318CF
S1134BE05868FFF74CF82023181A0C9BC0181F2391
S1134BF0184000D1ABE001331B1A042B00DC9BE00E
S1134C001C23181A0B9B24181B180B930C9B1B18A2
S1134C100C930B9B002B05DD1A0005990498FFF7F4
S1134C2061F905900C9B002B05DD1A000899049886
S1134C30FFF758F90890169B002B00D189E00899DA
S1134C400598FFF7A0F9002800DB82E0039B0A2205
S1134C50013B0393059900230498FEF7D4FF0E9BB0
S1134C600590002B00D15DE1002331000A22049855
S1134C70FEF7C9FF0D9B0600002B02DC229B022BD2
S1134C806DDC002C05DD310022000498FFF72AF9C1
S1134C9006003000002D11D071680498FEF762FF01
S1134CA03100040033690C319A1C92000C3000F07E
S1134CB051F9012221000498FFF714F90D9F0A9B72
S1134CC0013F0B93DB19370006000F9308990598F1
S1134CD0FFF7CAFA39000D9004000598FFF753F95D
S1134CE032000E9008990498FFF766F901230C939B
S1134CF0C36830340500002B04D101000598FFF788
S1134D0042F90C9029000498FEF764FF0C9B229A48
S1134D10134300D089E0069A0133134200D084E0A3
S1134D20392C00D1A3E00E9B002B01DD0D9C313406
S1134D300B9B5D1C1C7027E0042B00D169E70B9AC8
S1134D401C33D2180B920C9AE418D31860E70300B2
S1134D50F5E7002F3CDC229B022B39DD0D970D9BE0
S1134D60002B0CD1089905220498FEF74CFF0890FB
S1134D7001000598FFF707F9002800DD5AE5239B99
S1134D800A9DDB430393002708990498FEF722FF4A
S1134D90002E00D13FE6002F05D0B74203D03900E2
S1134DA00498FEF717FF31000498FEF713FF32E66C
S1134DB008952E00E3E7002308931E00DFE7C046B2
S1134DC00000244033040000039608952E0031E5CA
S1134DD00E9B0D97002B00D053E70A9D0899059868
S1134DE0FFF742FA0A9B30300D9A2870013504000F
S1134DF0EB1A9A4278DC151E00DC012500270A9B79
S1134E005D19059901220498FFF76CF8089905903B
S1134E10FFF7B9F800282FDC01D1E3072CD46B1E6F
S1134E201A78302AB0D11D00F9E70E9B002B07DB5E
S1134E301D00229B1D4326D10123069A134222D131
S1134E400C9B002B00DC73E7059901220498FFF703
S1134E5049F808990590FFF796F8002804DC00D07B
S1134E6066E7E30700D463E7392C00D05EE70B9BC9
S1134E700B9A5D1C392313706B1E1A78392A3BD0A8
S1134E8001321A7080E70B9B01330D930C9B002BAE
S1134E9005DD392CEBD00D9D01340B9B4AE70B9BB0
S1134EA00F9A0D9D1C709342ABD000230A220599E2
S1134EB00498FEF7A8FE002305900A2239000498FE
S1134EC0B74206D1FEF79FFE070006000D9B0B9329
S1134ED0FCE6FEF798FE3100070000230A2204983E
S1134EE0FEF791FE0600F1E700230A2205990498D3
S1134EF0FEF789FE059071E70A9A9A4205D1039B51
S1134F0001330393312313703EE71D00B4E70A4BCA
S1134F10269A0A93094B002A01D0269A13600A980C
S1134F201DB0F0BD0D9B002B00DD56E7229B022B2C
S1134F3000DC52E713E7C046745600007C560000BC
S1134F4010B5034B01001868FFF716F910BDC046F1
S1134F5018000020002310B59A4200D110BDCC5C8B
S1134F60C4540133F8E770477047000002B4714637
S1134F7049084900095C49008E4402BC7047C04698
S1134F8003460B437FD4002243088B4274D30309A6
S1134F908B425FD3030A8B4244D3030B8B4228D347
S1134FA0030C8B420DD3FF22090212BA030C8B426D
S1134FB002D31212090265D0030B8B4219D300E00D
S1134FC0090AC30B8B4201D3CB03C01A5241830B92
S1134FD08B4201D38B03C01A5241430B8B4201D342
S1134FE04B03C01A5241030B8B4201D30B03C01A6B
S1134FF05241C30A8B4201D3CB02C01A5241830AE5
S11350008B4201D38B02C01A5241430A8B4201D313
S11350104B02C01A5241030A8B4201D30B02C01A3D
S11350205241CDD2C3098B4201D3CB01C01A5241A4
S113503083098B4201D38B01C01A524143098B422D
S113504001D34B01C01A524103098B4201D30B0116
S1135050C01A5241C3088B4201D3CB00C01A52413B
S113506083088B4201D38B00C01A524143088B4200
S113507001D34B00C01A5241411A00D20146524199
S1135080104670475DE0CA0F00D04942031000D3B8
S11350904042534000229C4603098B422DD3030A0D
S11350A08B4212D3FC22890112BA030A8B420CD31D
S11350B0890192118B4208D3890192118B4204D346
S11350C089013AD0921100E08909C3098B4201D3C6
S11350D0CB01C01A524183098B4201D38B01C01A00
S11350E0524143098B4201D34B01C01A5241030977
S11350F08B4201D30B01C01A5241C3088B4201D326
S1135100CB00C01A524183088B4201D38B00C01AD2
S11351105241D9D243088B4201D34B00C01A5241A9
S1135120411A00D20146634652415B10104601D336
S11351304042002B00D54942704763465B1000D3C0
S1135140404201B50020FCF75FFC02BD0029F8D005
S113515016E770478446101C62468C46191C634649
S113516000E0C0461FB500F0D1F8002801D40021AA
S1135170C8421FBD10B500F02BF84042013010BDED
S113518010B500F0C3F8002801DB002010BD012099
S113519010BDC04610B500F0B9F8002801DD0020AC
S11351A010BD012010BDC04610B500F04BF800281A
S11351B001DC002010BD012010BDC04610B500F078
S11351C041F8002801DA002010BD012010BDC046BE
S11351D0F0B54F464646D6465C00C0B51F03DB0F0C
S11351E09A46174B0E034D0084468046360B6D0DD0
S11351F0C90F91463F0B640D01209D4208D09C428B
S113520001D0A5420BD01CBC90469946A246F0BDE5
S113521063463343F7D1AC42F5D13A43F3D101208D
S1135220BE42F0D1C845EED1514507D0002DEAD198
S113523063461E433000461EB041E4E70020E2E727
S1135240FF070000F0B54546DE4657464E46E0B53A
S11352501F033D0B2C4F0E034C00AB465D008446F0
S1135260360B640DC90F90466D0DDB0FBC422AD07E
S1135270254FBD422DD0002C0FD13043070081466D
S113528078427841C0B2002D17D15F463A4314D119
S11352904B460020002B0AD006E0002D02D15846D0
S11352A0024301D0994218D04842012108433CBC32
S11352B090469946A246AB46F0BD0028F2D00120A4
S11352C0013B1843F3E737000743D1D002204042A3
S11352D0EDE75F461743CED0F8E7AC42E4DC03DAEF
S11352E0481E01210843E2E75E45DDD806D00020D0
S11352F05E45DCD20123481E1843D8E7C445D3D801
S11353000020C445F6D3D2E7FF070000F0B54E46AF
S11353104546DE4657465C00E0B51F03DB0F994661
S11353202A4B0E034D00C90F8446360B6D0D8B4678
S113533090463F0B640D9D4220D0244B9C4222D0CA
S1135340002D12D1304343424341DBB2002C1FD025
S1135350002B0CD04B460120013B034318003CBCFE
S113536090469946A246AB46F0BD002C16D0CB45DC
S113537017D05B46594201230B43EFE73100022368
S11353800143EBD1D9E7390002231143E6D1D7E732
S11353903A43DDD100230028E0D0EAE73A43E6D1DE
S11353A0E7E7A542E5DC05DBBE42E2D807D00023EF
S11353B0BE42D3D25946012301390B43CEE7C4453B
S11353C0D7D80023C445F5D3C8E7C046FF0700007B
S11353D070B5002830D0C317C4185C40C50F200036
S11353E0FEF7FCF9174B184A1B1AD21A1F2A18DDAC
S11353F0164AD21A9440002224035B05240B5B0D49
S11354000021100024030A0D240B12052243104C22
S11354101B05224013435B00ED075B082B43190077
S113542070BD210091400A000B21081AC4405B059D
S11354302403240B5B0DE3E7002500230024002252
S1135440DEE7C0461E04000033040000130400001D
S1135450FFFF0F8000080042000C004200100042D1
S11354600014004200180042001C0042E20D00003B
S1135470DE0D0000DE0D0000440E0000440E0000AE
S1135480F60D0000E80D0000FC0D0000320E0000D7
S113549004100000E40F0000E40F0000701000008E
S11354A0F60F000012100000E80F000020100000AA
S11354B060100000F81C0000481C0000481C00009C
S11354C0461C0000EA1C0000EA1C0000E01C00006E
S11354D0461C0000EA1C0000E01C0000EA1C00005E
S11354E0461C0000F01C0000F01C0000F01C000032
S11354F0801D0000C4260000A626000060260000CF
S11355007E2500006026000098260000602600002A
S11355107E250000A6260000A6260000982600008E
S11355207E25000076250000762500007625000003
S1135530DC280000242D0000E42B0000E42B0000F4
S1135540E02B0000FC2C0000FC2C0000EE2C0000E2
S1135550E02B0000FC2C0000EE2C0000FC2C0000D2
S1135560E02B0000042D0000042D0000042D000099
S1135570082F0000000000000080E03779C3414399
S1135580176E05B5B5B89346F5F93FE9034F384DA5
S1135590321D30F94877825A3CBF737FDD4F157551
S11355A0000000000000F03F000000000000244064
S11355B000000000000059400000000000408F403F
S11355C0000000000088C34000000000006AF840AA
S11355D00000000080842E4100000000D0126341CE
S11355E00000000084D797410000000065CDCD4144
S11355F0000000205FA00242000000E87648374225
S1135600000000A2941A6D42000040E59C30A242C2
S11356100000901EC4BCD64200003426F56B0C4337
S11356200080E03779C3414300A0D88557347643DE
S113563000C84E676DC1AB43003D9160E458E1433F
S1135640408CB5781DAF154450EFE2D6E41A4B44B4
S113565092D54D06CFF08044F64AE1C7022DB544F9
S1135660B49DD9794378EA4405000000190000008C
S11356707D000000496E66696E697479004E614E62
S113568000300000F8B5C046F8BC08BC9E46704720
S1135690DD000000F8B5C046F8BC08BC9E46704763
S10756A0B50000004D
S10B56A4A8C3FF7F0100000010
S11356AC006CDC02401F0000080000000100000038
S11356BC00000000000D0A001C0000200000000087
S11356CC00000000000000000000000000000000CA
S11356DC00000000000000000000000000000000BA
S11356EC00000000000000000000000000000000AA
S11356FC000000000000000000000000000000009A
S113570C0000000000000000000000000000000089
S10F571C0000000000000000000000007D
S90315994E
